:100000000C9480140C94AA140C94AA140C94AA14A2
:100010000C94AA140C94AA140C94AA140C94AA1468
:100020000C94AA140C94AA140C94AA140C94AA1458
:100030000C94AA140C94CAB00C94AA140C94AA148C
:100040000C94AA140C94B46C0C9480D60C94AA143E
:100050000C949E370C9494370C94AA140C94AA1404
:100060000C94AA140C94AA140C94AA140C94AA1418
:100070000C94AA140C94AA140C94AA140C94AA1408
:100080000C9492300C94AA140C94AA14D237D8373A
:10009000EA37FA3702383238063832380A380E383A
:1000A0003238123816381A38233832382E38B77F9B
:1000B000767EAD7EF37FAD7EAD7EAD7EAD7EAD7ED8
:1000C000AD7EAD7EAD7EAD7EAD7EAD7EAD7EAD7ED8
:1000D000AD7EAD7EAD7EAD7EAD7EAD7EAD7EAD7EC8
:1000E000AD7EAD7EAD7EAD7EAD7EED7FAD7EAD7E77
:1000F000AD7EAD7EAD7EAD7EAD7EAD7EC67FAD7E8E
:10010000AD7EAD7EAD7EAD7EAD7EAD7EAD7EAD7E97
:10011000AD7E0A80AA7EA5C188C18BC1A8C18EC14F
:1001200091C194C1A0C197C1B3C19AC19DC1F4D47A
:10013000F7D4EAD4EED40ED50ED5FBD4FFD405D532
:1001400009D5EFD5F4D5F9D503D631D631D60DD6AC
:1001500015D61DD627D64E414E494E495459494EC3
:1001600046CDCCCC3D0AD7233C17B7D13877CC2B22
:10017000329595E6241FB14F0A000020410000C8C7
:100180004200401C4620BCBE4CCA1B0E5AAEC59D48
:100190007400407A10F35A00A0724E18090010A59E
:1001A000D4E80000E87648170000E40B5402000091
:1001B000CA9A3B000000E1F5050000809698000017
:1001C0000040420F000000A0860100000010270040
:1001D000000000E803000000006400000000000AC6
:1001E00000000000000100000000002C76D888DC30
:1001F000674F0823DFC1DFAE59E1B1B796E5E3E40D
:1002000053C63AE651997696E8E6C28426EB898C85
:100210009B62ED407C6FFCEFBC9C9F40F2BAA56FE7
:10022000A5F490055A2AF75C936B6CF9676DC11BB6
:10023000FCE0E40D47FEF520E6B500D0ED902E037E
:1002400000943577050080841E080000204E0A00C7
:100250000000C80C333333330F986E12831141EF13
:100260008D2114893BE65516CFFEE6DB18D1844B71
:10027000381BF77C1D901DA4BBE424203284725EE1
:10028000228100C9F124ECA1E53D27434F4D4D5596
:100290004E49434154494F4E0044525952554E0025
:1002A0004552524F5253004543484F00536C6565C9
:1002B000702E2E2E005A2050726F6265205061738E
:1002C00074204265640A005A2050726F62652050A3
:1002D0006173742042656400486F6D652058592031
:1002E00066697273740A00486F6D6520585920461C
:1002F00069727374004D65736820706F696E742045
:1003000063616E6E6F74206265207265736F6C76C8
:1003100065640A004D302F3120427265616B2043C5
:10032000616C6C656400436C69636B20746F205270
:100330006573756D652E2E2E004E6F204D6F7665A0
:100340002E002569792025696420256968202569A2
:100350006D20256973005072696E742074696D6533
:100360003A2000452025530044454255473A004D68
:10037000313133205300544D334420456E6465724F
:1003800033204F46462E00204500204D393220585C
:10039000004649524D574152455F4E414D453A4DF9
:1003A00061726C696E20322E305F44573520544D97
:1003B0003344204533534D44424220534F5552431A
:1003C000455F434F44455F55524C3A6874747073AF
:1003D0003A2F2F6769746875622E636F6D2F496EAF
:1003E00073616E6974794175746F6D6174696F6E54
:1003F0002F4D61726C696E2F747265652F43726543
:10040000616C6974794477696E5F322E3020505286
:100410004F544F434F4C5F56455253494F4E3A311C
:100420002E30204D414348494E455F545950453A7E
:10043000544D334420456E64657233204558545200
:10044000554445525F434F554E543A312055554916
:10045000443A63656465326132662D343161322D10
:10046000343734382D396231322D633535633632C5
:100470006633363766660A002F2F20004D3134353B
:1004800020533C696E6465783E206F7574206F66FA
:100490002072616E67652028302D31290A002052B4
:1004A00000416363656C65726174696F6E3A2050D8
:1004B000003F4A206F7574206F662072616E676519
:1004C0002028302E303120746F20302E33290A003E
:1004D0004F46460020204D61783A200020204D698B
:1004E0006E3A2000536F667420656E6473746F708B
:1004F000733A200020466C6F773A200050726F7478
:1005000065637465642050696E0A00206F757420FD
:100510006F662072616E67650A0020536572766FA0
:10052000200050726F6265204F6666736574205AB2
:100530000050726F6265204F66667365745A3A2088
:1005400000496E76616C69642065787472756465C3
:10055000720A0020643A0020693A0020703A006470
:1005600069730043290A0061626C656420286D6923
:100570006E2074656D702000436F6C642065787424
:1005800072756465732061726520004D34323120CC
:10059000696E636F727265637420706172616D65FC
:1005A0007465722075736167650A004F66667365CE
:1005B0007473204170706C696564004572723A20F2
:1005C000546F6F206661722100546F6F20666172F4
:1005D0002066726F6D207265666572656E63652058
:1005E000706F696E740A00454550524F4D204F4B55
:1005F0000A003F5A206F7574206F662072616E6723
:10060000652028003F59206F7574206F6620726145
:100610006E676520282D0020746F20003F58206FE2
:100620007574206F662072616E676520282D0050FA
:10063000726F6265204F66667365742058003F4B89
:100640002076616C7565206F7574206F662072610D
:100650006E67652028302D3130292E0A00416476DE
:10066000616E6365204B3D00A7029E06A0029902C1
:100670008B024D38373620526573706F6E64696E29
:10068000672050524F4D50545F00554E4B4E4F57C0
:100690004E2053544154450047434F44455F494E13
:1006A000464F004C43445F50415553455F524553BC
:1006B000554D450046494C414D454E545F52554EAF
:1006C0004F55545F434F4E54494E55450046494C93
:1006D000414D454E545F52554E4F55540050757222
:1006E0006765204D6F7265004572726F7220777278
:1006F0006974696E6720746F20454550524F4D21D3
:100700000A00627573793A207061757365642066BA
:100710006F7220696E7075740A00627573793A2081
:1007200070617573656420666F7220757365720AF7
:1007300000627573793A2070726F63657373696EC6
:10074000670A004E6F20436865636B73756D207791
:10075000697468206C696E65206E756D6265722CB7
:10076000204C617374204C696E653A2000636865A3
:10077000636B73756D206D69736D617463682C2094
:100780004C617374204C696E653A20004C696E654B
:10079000204E756D626572206973206E6F74204CF7
:1007A000617374204C696E65204E756D6265722BA5
:1007B000312C204C617374204C696E653A20004DD9
:1007C00031313000776169740A002121204B494C96
:1007D0004C2063617573656420627920746F6F20AB
:1007E0006D75636820696E616374697665207469EC
:1007F0006D65202D2063757272656E7420636F6D58
:100800006D616E643A20006563686F3A00457272EC
:100810006F723A0042696C696E656172204C657650
:10082000656C696E6720477269643A0A000F150E9D
:100830001216170E1303021A1401000E0C190DFFE5
:10084000180C04000124F4D43050C38E20C2A240FE
:1008500017828B7011127A910D816CD90AA861E10F
:1008600008C7586607615143061E4B5D05C145A781
:10087000041A411104093D9803713931034036DBF4
:100880000265339102D4305402802E1D02632CEE97
:1008900001752AC501B028A001102781018F2564A8
:1008A000012B244B01E0223401AC211F018D200DCE
:1008B00001801FFC00841EED00971DDF00B81CD2D4
:1008C00000E61BC600201BBC00641AB200B219A8C7
:1008D000000A19A0006A189900D117910040178BDF
:1008E00000B516840031167E00B31579003A1573F1
:1008F00000C7146F0058146A00EE13660088136373
:100900000025135E00C7125B006C125700151254CD
:1009100000C111510070114F0021114B00D6104938
:10092000008D1047004610440002104200C00F40E6
:1009300000800F3E00420F3C00060F3B00CB0E38FC
:1009400000930E37005C0E3500270E3400F30D3295
:1009500000C10D3100900D3000600D2E00320D2DC4
:1009600000050D2C00D90C2B00AE0C2900850C299C
:10097000005C0C2700350C27000E0C2600E80B2429
:1009800000C40B2400A00B23007D0B23005A0B2175
:1009900000390B2100180B2000F80A1F00D90A1E8D
:1009A00000BB0A1E009D0A1D00800A1D00630A1C70
:1009B00000470A1B002C0A1B00110A1A00F7091A2B
:1009C00000DD091900C4091900AB091900920917C3
:1009D000007B091800630917004C09160036091638
:1009E00000200916000A091500F5081500E0081492
:1009F00000CC081400B8081400A4081400900813D0
:100A0000007D0812006B08130058081200460812F7
:100A10000034081100230811001208110001081108
:100A200000F0071000E0071000D0071000C007100A
:100A300000B0070F00A107100091070E0083070FF9
:100A40000074070F0065070E0057070E0049070ED8
:100A5000003B070D002E070E0020070D0013070DA9
:100A60000006070D00F9060C00ED060D00E0060C6F
:100A700000D4060C00C8060C00BC060C00B0060C26
:100A800000A4060B0099060C008D060B0082060BD5
:100A90000077060B006C060B0061060A0057060B78
:100AA000004C060A0042060A0038060A002E060A12
:100AB0000024060A001A060A001006090007060AA2
:100AC00000FD050900F4050900EB050900E2050930
:100AD00000D9050900D0050900C7050900BE0509B0
:100AE00000B5050800AD050800A50509009C05082E
:100AF00000940508008C050800840508007C0508A2
:100B000000740508006C050700650508005D050711
:100B100000560508004E0507004705070040050878
:100B20000038050700310507002A050700230507DF
:100B3000001C050600160507000F0507000805063E
:100B40000002050700FB040600F5040700EE04069A
:100B500000E8040600E2040700DB040600D50406F2
:100B600000CF040600C9040600C3040600BD040645
:100B700000B7040600B1040500AC040600A6040694
:100B800000A00405009B04060095040500900406DF
:100B9000008A04050085040500800406007A040527
:100BA0000075040500700405006B0405006604056B
:100BB00000610405005C04050057040500520405AB
:100BC000004D04050048040500430405003E0404EC
:100BD000003A04050035040500300404002C040527
:100BE0000027040400230405001E0404001A040462
:100BF0000016040500110404000D04040009040596
:100C0000000404040000040400FC030400F80304CE
:100C100000F4030400F0030400EC030400E8030400
:100C200000E4030400E0030400DC030400D8030430
:100C300000D4030400D0030400CC030400C8030361
:100C400000C503030024F404D9201BC40C5C0E98D7
:100C500004C4095F0265077101F405F900FB04B3E0
:100C60000048048700C10369005803550003034589
:100C700000BE023A008402310053022A00290225F4
:100C80000004022000E4011C00C8011900AF011794
:100C9000009801140084011300710110006101101B
:100CA0000051010E0043010D0036010B002B010B1A
:100CB0000020010B00150109000C010900030108C7
:100CC00000FB000800F3000800EB000700E400064A
:100CD00000DE000600D8000600D2000600CC0005A9
:100CE00000C7000500C2000500BD000400B90004F3
:100CF00000B5000400B1000400AD000400A9000428
:100D000000A5000300A20003009F0004009B000355
:100D10000098000300950002009300030090000378
:100D2000008D0002008B0003008800020086000294
:100D30000084000300810002007F0002007D0002A9
:100D4000007B0002007900020077000100760002BB
:100D5000007400020072000100710002006F0002C6
:100D6000006D0001006C0002006A000100690002D1
:100D700000670001006600010065000100640002D8
:100D8000006200010061000100600001005F0002DC
:100D9000005D0001005C0001005B0001005A0001E1
:100DA00000590001005800010057000100560001E1
:100DB00000550001005400010053000000530001E1
:100DC000005200010051000100500001004F0001DD
:100DD000004E0000004E0001004D0001004C0001DB
:100DE000004B0000004B0001004A000100490001D7
:100DF00000480000004800010047000100460000D4
:100E000000460001004500000045000100440001CB
:100E100000430000004300010042000000420001C6
:100E2000004100000041000100400001003F0000BF
:100E3000003F0001003E0000003E0001003D0000B8
:100E4000003D0001003C0000003C0000003C0001AF
:100E5000003B0000003B0001003A0000003A0001A6
:100E6000003900000039000100380000003800009F
:100E70000038000100370000003700010036000094
:100E8000003600000036000100350000003500008B
:100E9000003500010034000000340000003400017F
:100EA0000033000000330000003300010032000076
:100EB000003200000032000100310000003100006B
:100EC000003100010030000000300000003000015F
:100ED000002F0000002F0000002F0000002F000155
:100EE000002E0000002E0000002E0001002D00004A
:100EF000002D0000002D0000002D0001002C00003E
:100F0000002C0000002C0000002C0001002B000031
:100F1000002B0000002B0000002B0001002A000025
:100F2000002A0000002A0000002A00010029000019
:100F3000002900000029000000290000002900010C
:100F40000028000000280000002800000028000001
:100F500000280001002700000027000000270000F3
:100F600000270000002700010026000000260000E6
:100F700000260000002600000026000100250000D9
:100F800000250000002500000025000000250000CD
:100F900000250001002400000024000000240000BF
:100FA00000240000002400010023000000230000B2
:100FB00000230000002300000023000000230000A5
:100FC0000023000100220000002200000022000097
:100FD0000022000000220000002200010021000089
:100FE000002100000021000000210000002100007D
:100FF000002100000021000100200000002000006E
:101000000020000000200000002000000020000060
:101010000020000000200001001F0000001F000051
:10102000001F0000001F0000001F0000001F000044
:10103000001F0001001E0000001E0000001E000036
:10104000001E000000232C0000B8220000561800EB
:10105000003A0F0000B8080000B10400007102005F
:10106000003E0100004C6F6164206D6D00556E6C98
:101070006F6164206D6D0046696C2E204469612E9D
:10108000004520696E206D6DC2B300416476616ECB
:101090006365204B004D33303320553120452569A1
:1010A0002053256900504944204175746F74756E52
:1010B00065202A005049442D44202A005049442DDF
:1010C00049202A005049442D50202A00200820465B
:1010D000616374002008204D6178002008204D696C
:1010E0006E004F6666004F6E004175746F74656DDB
:1010F0007000000000000000000000000000000080
:101100006B4300006B4300007A430000484200003C
:101110004842000080400202040000A0400000A0FD
:101120004000000040FFFFFF000000010000000140
:101130000000800055555500000040003333330057
:10114000AAAA2A004992240000002000C7711C00AE
:1011500099991900D1451700555515003BB1130059
:101160002449120011111100000010000F0F0F0090
:10117000E3380E0043790D00CCCC0C00C3300C00DA
:10118000E8A20B0064210B00AAAA0A00703D0A0025
:101190009DD80900427B090092240900DCD3080095
:1011A000888808001042080000000800F0C107000D
:1011B0008787070075500700711C07003EEB06008B
:1011C000A1BC06006990060066660600703E060037
:1011D0006118060017F4050074D105005BB0050026
:1011E000B29005006272050055550500783905007A
:1011F000B81E0500050505004EEC040087D4040068
:10120000A1BD040090A7040049920400C17D040020
:10121000EE690400C7560400444404005C32040034
:101220000821040041100400000004003FF0030006
:10123000F8E0030026D20300C3C30300CCB50300CB
:101240003AA803000A9B0300388E0300C081030004
:101250009F750300D0690300505E03001D53030017
:1012600034480300913D0300333303001629030083
:10127000381F030097150300300C0300030303001D
:101280000BFA020049F10200BAE802005CE0020039
:101290002DD802002DD0020059C80200B0C00200B3
:1012A00031B90200DAB10200AAAA0200A0A302002A
:1012B000BC9C0200FA9502005C8F0200DF880200ED
:1012C00082820200457C020027760200277002001D
:1012D000436A02007C640200D05E02003F590200B3
:1012E000C853020020436F756E7420583A002045A1
:1012F0003A005761726E696E673A20486F6D696E89
:10130000672042756D702044697669736F72203C66
:1013100020310A0020746F6F206C6F6E6720657833
:1013200074727573696F6E2070726576656E746520
:10133000640A0020636F6C64206578747275736949
:101340006F6E2070726576656E7465640A00700158
:101350002C0190012701B0012201C0011D01F00103
:1013600018011002130130020E01600209019002FF
:101370000401C002FF000003FA004003F5008003EF
:10138000F000D003EB002004E6007004E100E0046C
:10139000DC004005D700C005D2004006CD00D006D5
:1013A000C8008007C3003008BE00F008B900C009BB
:1013B000B400B00AAF00B00BAA00D00CA500000E1C
:1013C000A000500F9B00C010960050129100001416
:1013D0008C00C0158700B0178200B0197D00D01BAB
:1013E0007800001E730040206E0090226900F024F7
:1013F000640040275F0090295A00E02B5500102E12
:10140000500020304B0010324600E0334100903550
:101410003C001037370070383200A0392D00B03A48
:101420002800A03B2300603C1E00103D1900903DA9
:101430001400103E0F00703E0A00C03E0500003F41
:101440000000403FFBFF803FF6FFC03FF1FF100070
:10145000C90210012C014001220170011801B001E4
:101460000E01F00104015002FA00B002F000300356
:10147000E600D003DC009004D2007005C800A0068E
:10148000BE000008B400B009AA00D00BA000600E96
:10149000960060118C000015820020197800C01D94
:1014A0006E00A0226400B0275A00902C500000313A
:1014B0004600E0343C0010383200903A2800603C8E
:1014C0001E00A03D1400803E0A00203F0000202D99
:1014D00020496E76616C6964206578747275646504
:1014E00072206E756D62657220210A005448455263
:1014F0004D414C2052554E41574159005468657238
:101500006D616C2052756E61776179004572723A37
:10151000204D415854454D50004D415854454D5073
:1015200020747269676765726564004572723A205B
:101530004D494E54454D50004D494E54454D502057
:1015400074726967676572656400202F00204240ED
:101550003A0020403A0020573A00205A3A20002012
:10156000593A200042656420583A200050726F6258
:10157000696E67204661696C65640A0050726F622B
:10158000696E67204661696C656400486F6D65200F
:1015900025732573257320466972737400220A002F
:1015A000556E6B6E6F776E20636F6D6D616E643A12
:1015B00020220054656D706572617475726500500B
:1015C00072656865617420414253005072656865B8
:1015D000617420504C410050726F6265205A204F58
:1015E0006666736574004D61696E0050726568656A
:1015F000617420504C4120426564005072656865FA
:10160000617420504C4120456E64005072656865DD
:1016100061742041425320456E64005072656865D4
:101620006174204142532042656400436F6F6C64D3
:101630006F776E0046616E205370656564004E6F73
:101640007A7A6C6500466C6F7700426564204C6561
:1016500076656C696E6720004661696C656420740C
:101660006F20656E61626C6520426564204C657612
:10167000656C696E670A00496E76616C6964206DFD
:101680006573682E0A0050726F62696E6720506F32
:10169000696E740025532025692F25690050726FEB
:1016A00062696E67206D65736820706F696E742063
:1016B00000202844525952554E29004732392041C2
:1016C00075746F20426564204C6576656C696E6741
:1016D000003F20284C2C522C462C4229206F757438
:1016E000206F6620626F756E64732E0A003F285665
:1016F000296572626F7365206C6576656C20696D13
:10170000706C61757369626C652028302D34292EE8
:101710000A00426164205A2076616C75650A004EA9
:101720006F2062696C696E65617220677269640A14
:101730000020496E76616C69642065787472756406
:10174000657220003FFFF038007030FC3020FC1044
:101750002078102030102C00D02E31D02F7BD02FAD
:101760007BD02E31D02C00D020301020781020FCDF
:101770001030FC303800703FFFF03FFFF038007051
:101780003186302387102787902F87D02F03D020D2
:1017900030102078102078102030102F03D02F87A1
:1017A000D02787902387103186303800703FFFF0B4
:1017B0000410400208200208200410400820801075
:1017C00041001041000820800410400000001FFF6D
:1017D000F81FFFF820202020202020004469736D8E
:1017E000697373005072696E74205061757365641B
:1017F000005061757365205072696E7400544D33EA
:101800004420456E646572332052656164792E0010
:101810005072696E74696E672E2E2E0063616E635E
:10182000656C005072696E742041626F72746564F9
:101830000055492041626F72746564004D32352055
:10184000500A4D323400526573756D65005549205C
:10185000506175736500726573756D65006E6F74A8
:10186000696669636174696F6E2000656E71756584
:101870007565696E67202200526573656E643A2053
:10188000002042006F6B0042656420436F6F6C69FB
:101890006E672E2E2E004265642048656174696E65
:1018A000672E2E2E0023646566696E6520444546CA
:1018B00041554C545F004B6420004B6920004B7035
:1018C0002000504944204175746F74756E65206620
:1018D000696E697368656421205075742074686549
:1018E000206C617374204B702C204B6920616E64F6
:1018F000204B6420636F6E7374616E747320667224
:101900006F6D2062656C6F7720696E746F20436F16
:101910006E66696775726174696F6E2E680A005031
:101920004944204175746F74756E65206661696CF9
:101930006564212074696D656F75740A000A20431F
:101940006C617373696320504944200A00204B6422
:101950003A2000204B693A2000204B703A20000AC0
:10196000204E6F206F76657273686F6F740A002067
:1019700054753A2000204B753A2000206D61783A6A
:101980002000206D696E3A200020643A2000206219
:101990006961733A2000504944204175746F747531
:1019A0006E652073746172740A0050494420417559
:1019B000746F74756E65206661696C65642120546E
:1019C000656D706572617475726520746F6F2068E3
:1019D0006967680A00504944204175746F74756ED8
:1019E00065206661696C65642120426164206578C8
:1019F000747275646572206E756D6265720A00534B
:101A0000544F505045442E20005072696E746572D8
:101A10002073746F707065642064756520746F2026
:101A20006572726F72732E20466978207468652023
:101A30006572726F7220616E6420757365204D3916
:101A4000393920746F20726573746172742E202886
:101A500054656D706572617475726520697320726A
:101A6000657365742E2053657420697420616674F3
:101A700065722072657374617274696E67290A00F9
:101A800021212053544F502063616C6C65642062A7
:101A9000656361757365206F6620424C546F756392
:101AA00068206572726F72202D2072657374617286
:101AB000742077697468204D3939390A002F2F61F5
:101AC0006374696F6E3A00627574746F6E00656E50
:101AD000640070726F6D70745F0073686F77004898
:101AE0006F74656E6420746F6F20636F6C640A009E
:101AF00053656E64204D31303820746F20726573E9
:101B0000756D650A0052656865617420446F6E6585
:101B100000526568656174696E6700526568656149
:101B2000740048656174657254696D656F75740001
:101B300053656E64204D31303820746F20686561C4
:101B400074206E6F7A7A6C650A004E6F7A7A6C65D3
:101B5000205061726B656400706175736564004D3F
:101B60003630303A20546F6F20436F6C64007265DA
:101B700073756D656400626567696E0050757267A4
:101B8000654D6F7265004C6F61642046696C616DD4
:101B9000656E74205400496E736572742066696CBA
:101BA000616D656E7420616E642073656E64204D96
:101BB0003130380A00526573756D696E6700FFFD3C
:101BC000FCFAF8F6F4F2F0EEECEAE9E7E5E3E1E03E
:101BD000DEDCDAD9D7D5D4D2D0CFCDCBCAC8C7C5F1
:101BE000C3C2C0BFBDBCBAB9B7B6B4B3B2B0AFAD73
:101BF000ACAAA9A8A6A5A4A2A1A09E9D9C9A9998CA
:101C00009795949392908F8E8D8B8A8988878684FE
:101C1000838281807F7E7D7B7A7978777675747315
:101C20007271706F6E6D6C6B6A696867666564630C
:101C30006261605F5E5D5C5B5A59585857565554F7
:101C400053525150504F4E4D4C4B4A4A49484746CB
:101C500046454443424241403F3E3E3D3C3B3B3A89
:101C600039383837363535343332323130302F2E3B
:101C70002E2D2C2B2B2A29292827272625252423DE
:101C80002322212120201F1E1E1D1C1C1B1B1A1974
:101C900019181817161615151413131212111110FE
:101CA0000F0F0E0E0D0D0C0C0B0A0A090908080780
:101CB0000706060505040403030202010000436F42
:101CC0006E66696775726174696F6E004368616EF4
:101CD00067652046696C616D656E74004D36303005
:101CE000204230004C6576656C696E6720546F6FDA
:101CF0006C73004D6F74696F6E00526573756D651E
:101D0000205072696E740053746F70205072696E47
:101D10007400496E666F2053637265656E004D38BE
:101D2000340044697361626C65205374657070653A
:101D30007273004C6576656C20436F726E657273CA
:101D400000473238004175746F20486F6D6500534D
:101D5000746F72652053657474696E677300436FA6
:101D60006E74696E756500554E4C4F41442046496E
:101D70004C414D454E540046494C414D454E542032
:101D80004348414E4745003F004D313930533535CA
:101D90000A4732380A4732390A4D3430300A4D3159
:101DA0003034533231350A4732380A4D31303953E5
:101DB0003231350A4D34323053310A4731583130DF
:101DC000305931303046353030300A47315A300AD8
:101DD0004D3530300A4D31313720536574205A204B
:101DE0004F6666736574004D313036533132380AB0
:101DF0004D3330334338533231354530550A4D3544
:101E000030300A4D313137205049442054756E65C9
:101E100020446F6E65004D3139305335350A4D31F0
:101E20003034533231350A4732380A4732394C316F
:101E30000A47312058313030593130304635303052
:101E4000300A47315A30004D3530300A4D31313784
:101E50002053657474696E67732053746F72656480
:101E6000005072657020666F72205A2041646A7556
:101E70007374005049442054756E65005365747541
:101E800070004D37303220542564004D36303020FC
:101E9000423020542564004D373032203B25640009
:101EA0004D37303120542564005075726765206DC0
:101EB0006F726500524553554D45204F5054494F60
:101EC0004E533A005052494E5420504155534544C8
:101ED0000020204E6F7A7A6C653A200053746F7040
:101EE000005072656865617420437573746F6D008E
:101EF0004261636B005061726B696E672E2E2E001B
:101F000000005761697420666F720066696C616DCC
:101F1000656E74206368616E676500746F2073740A
:101F2000617274005761697420666F720066696C33
:101F3000616D656E7420756E6C6F616400004E6F2C
:101F40007A7A6C652068656174696E6700506C65AB
:101F500061736520776169742E2E2E0000507265C2
:101F6000737320627574746F6E00746F206865619E
:101F700074206E6F7A7A6C650000496E73657274B6
:101F80002066696C616D656E7400616E64207072AC
:101F900065737320627574746F6E00746F20636F65
:101FA0006E74696E7565005761697420666F7200A2
:101FB00066696C616D656E74206C6F6164000050C1
:101FC0007265737320427574746F6E00746F207243
:101FD0006573756D65207072696E74000057616974
:101FE0007420666F72207072696E7400746F207254
:101FF0006573756D652E2E2E00005761697420661D
:102000006F720066696C616D656E742070757267C1
:102010006500004E6F20454550524F4D2E0A004539
:102020004550524F4D20496E697469616C697A65FB
:10203000640A00486F6D696E67204661696C65646B
:10204000006F70656E005452494747455245440041
:102050007A5F6D696E00795F6D696E00785F6D699A
:102060006E005265706F7274696E6720656E64737E
:10207000746F70207374617475730A0000803B4440
:1020800000803B4400002041000096420000A04236
:102090000000A0420000C8430000BE42D00700007C
:1020A000D0070000640000004B000000416476612E
:1020B0006E6365642053657474696E6773004E6562
:1020C000787420506F696E74004E65787400486FA4
:1020D0006D696E672058595A00436D643A205374F5
:1020E0006F7700436D643A204465706C6F790043EC
:1020F0006D643A2053572D4D6F646500436D643A0B
:102100002053656C662D5465737400436D643A20EA
:102110005265736574004C6F616420536574746913
:102120006E677300526573746F7265206661696CC7
:102130007361666500424C546F75636800202050DF
:102140006C616E6E65724275666665724279746521
:10215000733A20002046726565204D656D6F727977
:102160003A2000436F6D70696C65643A2046656281
:1021700020203320323032300A00204C617374202A
:10218000557064617465643A20323031392D3130D4
:102190002D3237207C20417574686F723A20546963
:1021A0006E794D616368696E657333440A00322E3F
:1021B000305F4457350A004D61726C696E002053E0
:1021C0006F6674776172652052657365740A0020CA
:1021D0005761746368646F672052657365740A00A1
:1021E0002042726F776E206F75742052657365742C
:1021F0000A002045787465726E616C2052657365C3
:10220000740A00506F77657255700A00456E6473EA
:10221000746F707300255320256320256320256388
:1022200020256300205A3A0020593A00656E6473F5
:10223000746F7073206869743A20004572723A2096
:102240007574663820666F6E74206E6F7420696EC8
:10225000697469616C697A65642E00000C0D00FE7A
:1022600007022603BC017FFE08FE08FE05080806DB
:10227000000040F0C888889878100508080600001B
:10228000C0F88888888888F8050505060001203090
:10229000F830200508080600002070F820202020D3
:1022A000E00509090600FF2070A8A8B888887020FA
:1022B000050606060001E08CEA8C8A0A0509090673
:1022C00000FFF8A88888888888A8F8050A0A060008
:1022D000FE205050505088A8A888700303030600C1
:1022E0000340A040FFFFFFFFFFFFFFFFFFFFFFFFD7
:1022F000FFFFFFFFFFFFFFFFFFFF0000000605FFDE
:1023000001070706020080808080800080030303AD
:10231000060105A0A0A005060606000050F85050D2
:10232000F8500509090600FF2070A8A07028A870C1
:1023300020050707060000C8C81020409898050728
:102340000706000040A0A040A89068010303060211
:10235000058080800309090601FF204040808080BD
:102360004040200309090601FF8040402020204012
:10237000408005070706000020A8702070A82005EF
:1023800005050600012020F820200203030601FFB6
:10239000C04080050101060003F8020202060100A8
:1023A000C0C0050707060000081010204040800547
:1023B0000707060000708898A8C8887003070706FA
:1023C000010040C040404040E005070706000070A3
:1023D0008808102040F8050707060000F8081030AC
:1023E00008887005070706000010305090F810109C
:1023F000050707060000F880F00808887005070741
:10240000060000304080F08888700507070600004D
:10241000F8081010202020050707060000708888A3
:102420007088887005070706000070888878081093
:1024300060020505060100C0C000C0C00206060615
:1024400001FFC0C000C04080030505060101204017
:10245000804020050303060002F800F80305050686
:1024600001018040204080050707060000708810A9
:10247000202000200507070600007088B8A8B88053
:1024800070050707060000708888F88888880507A7
:1024900007060000F04848704848F00507070600A6
:1024A0000070888080808870050707060000F0486B
:1024B00048484848F0050707060000F88080F0808B
:1024C00080F8050707060000F88080F0808080050E
:1024D0000707060000708880809888700507070647
:1024E0000000888888F8888888030707060100E0CC
:1024F0004040404040E0050707060000381010103B
:102500001090600507070600008890A0C0A0908882
:10251000050707060000808080808080F805070797
:1025200006000088D8A88888888805070706000064
:102530008888C8A8988888050707060000708888DA
:1025400088888870050707060000F08888F080807A
:102550008005070706000070888888A8906805072E
:1025600007060000F08888F0A0908805070706009D
:102570000070888070088870050707060000F82042
:1025800020202020200507070600008888888888EA
:102590008870050707060000888888885050200545
:1025A000070706000088888888A8A850050707063E
:1025B000000088885020508888050707060000889A
:1025C000885020202020050707060000F80810206A
:1025D0004080F80309090601FFE080808080808048
:1025E00080E0050707060000804040201010080327
:1025F00009090601FFE020202020202020E005031B
:10260000030600052050880501010600FEF80303BB
:1026100003060105804020050505060000700878C6
:1026200088780507070600008080F0888888F00514
:102630000505060000708080887005070706000009
:10264000080878888888780505050600007088F0F5
:102650008070050707060000304840E04040400514
:1026600007070600FE708888887808700507070647
:1026700000008080F08888888803070706010040F2
:1026800000C0404040E00409090601FE100030107F
:10269000101010906005070706000080808890E009
:1026A0009088030707060100C04040404040E00515
:1026B0000505060000D0A8A8A8A805050506000085
:1026C000B0C888888805050506000070888888706D
:1026D0000507070600FEF0888888F0808005070758
:1026E0000600FE7888888878080805050506000039
:1026F000B0C880808005050506000078807008F06D
:102700000507070600002020F820202018050505F1
:1027100006000088888898680505050600008888F6
:102720008850200505050600008888A8A8500505E2
:102730000506000088502050880507070600FE881F
:10274000888850204080050505060000F8102040CC
:10275000F80309090601FF20404040804040402026
:102760000109090602FF80808080808080808003CC
:1027700009090601FF804040402040404080050399
:102780000306000248A890FF706F7765726F666657
:1027900000506C656173652052657365740050521A
:1027A000494E5445522048414C5445440025533A23
:1027B000202553004B494C4C45442E200050726953
:1027C0006E7465722068616C7465642E206B696C30
:1027D0006C28292063616C6C6564210A000000216B
:1027E00000240027002A0000002200250028002BDA
:1027F000000000200023002600290002020202023D
:102800000202020404040404040404030303030393
:102810000303030101010101010101010204081088
:1028200020408001020408102040800102040810AA
:1028300020408080402010080402010000000102B6
:1028400000090A000000000403080700000000005F
:1028500000000000000000000000004D6F766520C1
:1028600025736D6D004D6F766520302E316D6D00D6
:102870004D6F766520316D6D004D6F76652031307E
:102880006D6D004D6F7665204178697300486F74F7
:10289000656E6420746F6F20636F6C64004578749C
:1028A0007275646572004D6F7665205A004D6F76C3
:1028B000652059004D6F76652058004531006265EE
:1028C00064002C2073797374656D2073746F70705D
:1028D000656421204865617465725F49443A20004F
:1028E00048656174696E67204661696C656400487B
:1028F000656174696E67206661696C65640046E2B3
:1029000011241FBECFEFD0E4DEBFCDBF12E0A0E0A8
:10291000B1E0EEEEF1EE01E00BBF02C007900D92C8
:10292000A236B107D9F720E1A2E6B2E001C01D92BC
:10293000A034B207E1F714E1C0E8D4E104C0219764
:10294000FE010E9498EECF37D107C9F70E94CEDE74
:102950000C94F5F00C9400002F923F924F925F92EE
:102960006F927F928F929F92AF92BF92CF92DF929F
:10297000EF92FF920F931F93CF93DF93CDB7DEB704
:10298000E5970FB6F894DEBF0FBECDBF8CAB20919C
:1029900067022AAB81E0809367028091E50B8D345A
:1029A00009F4DEC3843511F40C94DE27873411F06A
:1029B0000C94F9278091E30B9091E40B8C319105F5
:1029C00009F437C18CF48430910509F4D4C01CF4A7
:1029D000029738F1C1C38531910511F40C94FB279E
:1029E0004B9709F407C1B8C38A32910509F48DC227
:1029F00044F48D31910509F42CC14E9709F43DC181
:102A0000ABC38B35910509F4FDC18C35910509F4F3
:102A1000FEC18A35910509F09FC3109266020C949D
:102A2000FB2780917601882311F40C94FB2710E991
:102A3000A12E11E0B12E0FE8E02E03E0F02E0AE403
:102A40001BE08DE2C82E8BE0D82E912CD5018D9104
:102A50005D010E942FAA882311F10E94C6A92B01B3
:102A60003C01892D0E947B83882351F0F80120814D
:102A7000318142815381C301B2010E94A2EE09C09B
:102A8000D6012D913D914D915C91C301B2010E94FF
:102A9000A1EEF70160837183828393830AC0F801FA
:102AA00080819181A281B381F70180839183A28388
:102AB000B3839394F4E0EF0EF11C0C5F1F4F24E0FE
:102AC000C20ED11C33E09312C1CF85E40E942FAA1D
:102AD000882301F10E94C6A96B017C0183E00E945A
:102AE0007B83882371F02091560B3091570B4091D6
:102AF000580B5091590BC701B6010E94A2EE6B0111
:102B00007C01C0929B03D0929C03E0929D03F092C3
:102B10009E0310C08091560B9091570BA091580BBB
:102B2000B091590B80939B0390939C03A0939D03BA
:102B3000B0939E0340E050E0BA0186E40E94E59F16
:102B400020E030E0A9010E9425F0181684F40E94CC
:102B5000C6A920E030E040E752E40E9425EF6093F0
:102B6000490170934A0180934B0190934C010E945C
:102B7000E34E0C94FB2780E50E942FAA882329F0BE
:102B80000E9497836B017C0103C0C12CD12C76017C
:102B900083E50E942FAA882361F00E94C6A920E045
:102BA00030E04AE754E40E9411E80E949EEF6B0176
:102BB0007C010E94A4B48091010E811105C060E0E7
:102BC0008CEA92E00E94DF9E0E9474D6C60ED71E49
:102BD000E81EF91E0E9474D6DC01CB018C199D09F8
:102BE000AE09BF09B7FD02C00C94FB2780E00E942C
:102BF000AA33F0CF0E94447281110C94FB278CE021
:102C0000E8E7F1E0DE01119601900D928A95E1F777
:102C100080E50E942FAA882321F00E94B6A9862F62
:102C200001C080E0BE016F5F7F4F0E94119E0C9437
:102C3000FB278091460B8770873011F00C940B288E
:102C400060E08FE40E94048781110C94FB270C94B0
:102C50000B280E94447281110C94FB2780918B0CED
:102C6000882311F40C942C2A60E08FE40E940487DE
:102C700081110C94FB270C942C2A2091390B309154
:102C80003A0B40913B0B50913C0B60914A0B709179
:102C90004B0B80914C0B90914D0B0E94A2EEAB011F
:102CA000BC0188E50E94E59F69837A838B839C83BE
:102CB00020913D0B30913E0B40913F0B5091400BCA
:102CC00060914E0B70914F0B8091500B9091510B76
:102CD0000E94A2EEAB01BC0189E50E94E59F6D83D5
:102CE0007E838F839887BE016B5F7F4FCE010196F5
:102CF0000E94CB83882311F40C94FB2780E00E9470
:102D0000ADAF0E94725261E085E40E940487182FE3
:102D100021E0482FBE016B5F7F4FCE0101960E94DC
:102D2000A2726B017C019B01AC010E94A3F0811196
:102D30005FC089809A80AB80BC8020E030E0A90130
:102D4000C501B4010E94ABE787FD05C027E137EB61
:102D500041E558E304C027E137EB41E558EBC501F5
:102D6000B4010E94A2EEAB01BC0184E695E10E9491
:102D700072338D809E80AF80B88420E030E0A9015E
:102D8000C501B4010E94ABE787FD05C027E137EB21
:102D900041E558E304C027E137EB41E558EBC501B5
:102DA000B4010E94A2EEAB01BC018FE595E10E9447
:102DB000723320E030E0A901C701B6010E94ABE701
:102DC00087FD05C067E177EB81E598E304C067E123
:102DD00077EB81E598EBA70196010E94A2EEAB018B
:102DE000BC018AE595E10E9472338AE00E94573166
:102DF0000E945952113011F40E941DB20E94725566
:102E00000C94FB278FE0809366020C94FB27E0E98B
:102E10002E2EE1E03E2EF3E8EF2EF3E0FF2E2AE423
:102E20003BE03FA32EA3ADE2CA2EABE0DA2E00E0DA
:102E300010E0D1018D911D010E942FAA882309F471
:102E40004BC00E94C6A92B013C01133049F0F6018A
:102E500020813181428153810E94A1EE2B013C01EE
:102E6000AEA1BFA12D913D914D915C91C301B201E5
:102E70000E94A1EE4B015C012DEB37E346E855EBD8
:102E80000E9425F087FD0AC02DEB37E346E855E3A5
:102E9000C501B4010E94ABE71816F4F4133051F4E5
:102EA0004092560B5092570B6092580B7092590BF0
:102EB00001E012C0A5019401F70160817181828156
:102EC00093810E94A2EED7016D937D938D939C9385
:102ED0001397812F0E94C34E1F5FB4E0EB0EF11CCD
:102EE000EEA1FFA13496FFA3EEA3F4E0CF0ED11C18
:102EF000143009F09ECF002321F086E59BE00E946C
:102F0000B5B40E9472550C94FB27809176018823FA
:102F100011F40C94FB2789E40E942FAAE82E882341
:102F200021F00E941987082F01C000E08AE40E9466
:102F30002FAAF82E882321F00E941987182F01C08C
:102F400010E0EE2011F0053020F4FF2041F01530A4
:102F500030F085EF92E00E945E310C94FB2780E117
:102F6000EAE4FBE0AFE8B3E001900D928A95E1F767
:102F7000EE2019F1602F000F770B880B990B0E9440
:102F8000B2E72091070D3091080D4091090D509145
:102F90000A0D0E9411E82091FF0C3091000D409124
:102FA000010D5091020D0E94A2EE60938F03709369
:102FB00090038093910390939203FF2019F1612F66
:102FC000110F770B880B990B0E94B2E720910B0D24
:102FD00030910C0D40910D0D50910E0D0E9411E895
:102FE0002091030D3091040D4091050D5091060D77
:102FF0000E94A2EE609393037093940380939503D1
:103000009093960360E080E50E9404878823C1F1D5
:10301000EE20D1F02091390B30913A0B40913B0BCF
:1030200050913C0B60918F037091900380919103BC
:10303000909192030E94A1EE60938F03709390038E
:103040008093910390939203FF20D1F020913D0B48
:1030500030913E0B40913F0B5091400B6091930398
:103060007091940380919503909196030E94A1EE34
:1030700060939303709394038093950390939603C6
:1030800040E050E0BA0186E40E94E59F6B017C01BC
:1030900020E030E0A9010E9425F018165CF420E041
:1030A00030E040E752E4C701B6010E9425EF6B0112
:1030B0007C0103C0C12CD12C7601809049019090F5
:1030C0004A01A0904B01B0904C0120E030E0A901F2
:1030D000C701B6010E94ABE7882341F0C0924901C5
:1030E000D0924A01E0924B01F0924C0100913601DE
:1030F0001091370184E690E0909337018093360178
:10310000C0903801D0903901E0903A01F0903B0135
:1031100080E090E0A0E8BFE380933801909339010C
:10312000A0933A01B0933B010E94E34E8092490183
:1031300090924A01A0924B01B0924C01109337013A
:1031400000933601C0923801D0923901E0923A01E1
:10315000F0923B010C94FB270E942A720C94FB27EF
:103160008091E30B9091E40B8139910509F4D3C66A
:103170000CF097C08936910509F480C30CF048C063
:103180008C34910509F4F5C2FCF48231910509F4FF
:1031900037C56CF497FF02C00C94DB278230910591
:1031A0000CF467C1419709F4EAC10C94DB278A3219
:1031B000910509F4B7C28B34910509F4D6C24F9733
:1031C00011F00C94DB2700C28335910509F410C57A
:1031D0007CF48135910509F4EEC40CF001C58D3401
:1031E000910511F00C94DB270E94C09A0C94FB27E8
:1031F0008535910509F44EC50CF402C58C35910551
:1032000009F463C58836910509F4B7C20C94DB272D
:103210008237910509F412C6F4F48D36910509F44C
:10322000D0C244F48B36910509F460C30CF43AC360
:103230000C94FB278F36910509F476C30CF461C317
:103240008037910511F40C94FB278137910509F41F
:10325000B6C30C94DB278737910509F447C68CF475
:103260008537910509F4F0C50CF005C68337910543
:1032700011F00C94DB2781E993E00E945E310C94FD
:10328000FB278937910509F43EC60CF433C68D3708
:10329000910509F4DCC38C38910509F4BAC30C9488
:1032A000DB27803321E0920711F40C9472240CF098
:1032B00067C0833D910511F40C94952164F58B3C16
:1032C000910509F4FBC68CF4883C910509F481C68C
:1032D000893C910509F4CCC68E3B910511F00C9404
:1032E000DB270E945DA50C94FB278D3C910509F41A
:1032F00078C70CF402C78E3C910511F00C94DB27C3
:1033000070E9C72E71E0D72EEDE2EE2EEDE0FE2E35
:1033100010E00C9483218831A1E09A0711F40C94F9
:103320000A238CF48D3D910511F40C946822823EA1
:10333000910511F40C94BE228C3D910511F00C9472
:10334000DB270C945B228D32E1E09E0711F40C9494
:10335000F2233CF48232914011F40C94A1230C949A
:10336000DB278E3231E0930711F40C94E5248F3281
:10337000914011F00C94DB270E94FC9F0C94FB27DA
:10338000853FB1E09B0711F40C940826DCF58A39DF
:10339000F1E09F0711F40C94FB27ACF4813931E084
:1033A000930711F40C9429258239A1E09A0711F4AE
:1033B0000C942F258039914011F00C94DB270E944A
:1033C000A4B40C94FB27853AE1E09E0711F40C9419
:1033D00037254CF4843A914011F00C94DB270E947D
:1033E00059850C94FB278C3A31E0930711F40C9427
:1033F000A025843F914011F00C94DB270E947C951E
:103400000C94FB278B35B2E09B0711F40C94182722
:10341000ACF4883FF1E09F0711F40C940B2688353B
:1034200022E0920711F40C941527863F914011F089
:103430000C94DB270E9438C20C94FB278C36A3E047
:103440009A0711F40C94FB273CF48335934011F454
:103450000C941C260C94DB278438F3E09F0711F4AE
:103460000C949127873E934011F40C94CD270C9433
:10347000DB27A090DF0BB090E00B80E50E942FAA25
:10348000882359F00E9497836B017C0111E0672B20
:10349000682B692B31F410E004C010E0C12CD12C52
:1034A000760183E50E942FAA882311F40C942F2A19
:1034B0000E94C6A920E030E04AE754E40E9411E8E7
:1034C0000E949EEF6B017C0111110BC0672B682BD2
:1034D000692B39F4A114B10421F0D5018C9181112B
:1034E00002C010E001C011E00E94A4B4112341F019
:1034F0008091450B811109C0C5010E94B09E05C095
:1035000060E086E293E00E94DF9E1091670283E014
:103510008093670281E08093C40B4EE55DE164E136
:1035200073E082E00E9498AAC114D104E104F1047E
:10353000B1F00E9474D6C60ED71EE81EF91E0E9476
:1035400074D6DC01CB018C199D09AE09BF09B7FF08
:103550000EC08091C40B81110C94342A08C0809154
:10356000C40B882321F080E00E94AA33F8CF0E9488
:10357000569F1092C40B109367020C94FB2782E4B1
:1035800092E00E94A7838823A1F088E50E94FDA90C
:1035900081115E9889E50E94FDA981115E988AE5F6
:1035A0000E94FDA9882311F40C94FB2715980C9414
:1035B000FB2760E089E393E00E94DF9E5E985E98BF
:1035C00015985E980C94FB270E94389A7B018C0119
:1035D00020E831E541E050E00E9401EEC9016DE6CE
:1035E00071E00E9470EE4B015C01C801B70120E15F
:1035F0003EE040E050E00E9401EECA01B90128E13E
:1036000030E040E050E00E9401EE762E672EC62E9C
:10361000D72E7CE3272E312C412C512CC801B70129
:10362000A20191010E9401EEF62EE72ECA01B90116
:10363000A20191010E9401EECB018E010F5F1F4F8D
:103640008114910499F0EF92FF927F936F936F92A0
:103650007F92BF92AF929F928F9282E493E09F936A
:103660008F931F930F930E9443E713C0A114B104DB
:10367000B1F0EF92FF927F936F936F927F92BF9220
:10368000AF9286E493E09F938F931F930F930E94D2
:1036900043E70FB6F894DEBF0FBECDBF30C0CD28D4
:1036A00079F0EF92FF927F936F936F927F928AE40B
:1036B00093E09F938F931F930F930E9443E7E9CF6B
:1036C000892B69F0EF92FF927F936F938EE493E0E2
:1036D0009F938F931F930F930E9443E7DACFEF924C
:1036E000FF9282E593E09F938F931F930F930E9425
:1036F00043E70F900F900F900F900F900F908091D5
:10370000450B811103C0C8010E94B09E0E94843104
:10371000B80186E593E00E946D318AE00E9457313E
:103720000C94FB2783E50E942FAA882311F40C94A4
:10373000FB270E940085F82E6FEF7FEF80E50E9447
:103740001D878C0197FF02C00C94FB27E82E60E0D8
:1037500089E40E94048781110C94392A802F0E94E9
:10376000A6DD811128C70C94392A0E94879A0C94EF
:10377000FB270E94AB9A0C94FB2780916D0A83FF74
:1037800002C00C94FB270E94148587FF02C00C9492
:10379000FB2783E50E942FAA882379F00E94C6A9FF
:1037A0000E9497EF8B01CB010E94E26E0635110556
:1037B00024F40E94C09A0E94569F0E949EDE0C94A0
:1037C000FB2780916D0A83FF02C00C94FB270E94A7
:1037D0001485F82E87FF02C00C94FB2783E50E9416
:1037E0002FAA082F811106C082E50E942FAA182F48
:1037F0008823C1F10E94C6A90E9497EFCB010E94C5
:10380000E26E0E94C6A920E030E04AEA52E40E943B
:10381000ABE7181614F40C944C2A0E94C09A0E942C
:10382000569F6091F8037091F903072E000C880BE6
:10383000990B0E94B2E74B015C014090F403509059
:10384000F5036090F6037090F703A30192010E94C4
:1038500025F0181614F40C94502A002311F40C943B
:10386000622A11E00E949EDE112311F40C94FB27C2
:10387000602F8F2D0E94C3690C94FB270E94148532
:10388000182F87FD0AC084E898E10E945E31812FDD
:103890000E944C698AE00E945731BAA9B09367022E
:1038A0000C94E82A60E080E50E943D8581110C942B
:1038B000FB2781E40E94FDA9882321F06091DE03AB
:1038C000062F02C00FEF10E083E50E942FAA882385
:1038D00049F00E94B6A98B016F3F710519F010F0F5
:1038E0000FEF10E00093DE030C94FB2760E080E50F
:1038F0000E943D8581110C94FB271092DE030C94ED
:10390000FB278EE40E942FAA882311F40C94FB2736
:103910000E94B6A960936B0C70936C0C80936D0C35
:1039200090936E0C0C94FB2783E50E94FDA98823DD
:1039300031F060E083E50E943D8580936D0A0E942E
:10394000843188E693E00E945E3180916D0A88237D
:1039500069F168E6E62E66E0F62E00E010E020E071
:1039600080916D0A90E0A0E0B0E0002E04C0B69512
:10397000A795979587950A94D2F780FF0EC0DD240E
:10398000D394D20E222319F08CE20E945731F70112
:10399000859194910E945E312D2D0F5F1F4FE2E0C3
:1039A000EE0EF11C05301105D9F604C08DE897E242
:1039B0000E945E318AE00E9457310C94FB2783E518
:1039C0000E942FAA882381F00E940085282F30E0D2
:1039D0002D33310524F4809300010C94FB278CE3F4
:1039E000809300010C94FB270E948431C090000159
:1039F000D12CE12CF12C8FE693E00E945E314AE05D
:103A0000C701B6010E94DC318AE00E9457310C9454
:103A1000FB2780916D0A83FF02C00C94FB2783E58E
:103A20000E942FAA882311F40C94FB270E94C6A998
:103A30000E9497EF6C38710514F06CE870E0709399
:103A4000EA0A6093E90A0E9465670C94FB278CE4FC
:103A50000E94FDA9882381F00E94C6A96B017C0108
:103A600020E030E0A9010E9425F087FF0BC0F7FAA3
:103A7000F094F7F8F09406C0C12CD12C50E8E52E54
:103A800050E4F52EF7FAF094F7F8F094CAA2DBA20E
:103A9000ECA2FDA28CE0E4E8F1E0DE0111960190D9
:103AA0000D928A95E1F788E50E942FAA8823A1F05C
:103AB00040E050E0BA0188E50E94E59F20912D0B7F
:103AC00030912E0B40912F0B5091300B0E94A1EEA4
:103AD00069837A838B839C8389E50E942FAA88233C
:103AE000A1F040E050E0BA0189E50E94E59F2091F5
:103AF0002D0B30912E0B40912F0B5091300B0E94CB
:103B0000A1EE6D837E838F8398878AE50E942FAA1A
:103B1000882351F040E050E0BA018AE50E94E59F19
:103B200069877A878B879C8740E061E080E00E940C
:103B300076C180E50E942FAA1E8A1F8A188E198ED0
:103B40009091C10B91110C94FB27282FAE014A5E76
:103B50005F4FBE016F5F7F4FCE0182960E9416AD10
:103B6000882311F40C94FB2760E080E00E94B3AA44
:103B700080E090E0A0E8B0E48E8B9F8BA88FB98F97
:103B80001A8E1B8E1C8E1D8E1E8E1F8E18A219A2C1
:103B90008091C10B882311F40C94FB2720E0AE0127
:103BA0004A5E5F4FBE01665E7F4FCE014E960E9419
:103BB00045AB0C94FB270E94F36E0E94C09A0E94B2
:103BC0006BB60E94948368EE73E080E090E00E9400
:103BD000242F60E086E793E00E94DF9E0C94FB2791
:103BE000809166028F7D8061809366020C94FB2732
:103BF000809166028F7E8062809366020C94FB2720
:103C000083E50E942FAA8823A1F00E94C6A920E084
:103C100030E04AE754E40E9411E80E949EEF60936E
:103C200001017093020180930301909304010C94AD
:103C3000FB2782E492E00E94A783882339F10E9447
:103C4000A4B488E50E94FDA9882331F05E9A809192
:103C50002C0B8E7F80932C0B89E50E94FDA9882375
:103C600031F05E9A80912C0B8D7F80932C0B8AE52E
:103C70000E94FDA9882311F40C94FB27159A8091CA
:103C80002C0B8B7F80932C0B0C94FB270E946BB624
:103C90000C94FB2783E50E94FDA9882311F40C9462
:103CA000FB270E94C6A920E030E04AE754E40E94C6
:103CB00011E80E949EEF609362027093630280930A
:103CC0006402909365020C94FB270E94148587FF81
:103CD00002C00C94FB2782E492E00E94A783882311
:103CE00009F475C030E9C32E31E0D32E4EE6E42E40
:103CF0004AE0F42E10E0D6018D916D010E942FAAAA
:103D0000882309F459C0133009F04FC00E94C6A996
:103D10004B015C0120E030E040EA51E40E94ABE757
:103D200087FF3AC0A501940160918E0A70918F0AB5
:103D30008091900A9091910A0E9425EF2B013C01FD
:103D40009B01AC0160919E0A70919F0A8091A00A2C
:103D50009091A10A0E9411E860939E0A70939F0AB5
:103D60008093A00A9093A10A6091CE037091CF0333
:103D70008091D0039091D1030E94B0E7A3019201FA
:103D80000E9411E80E949EEF6093CE037093CF03D0
:103D90008093D0039093D10380928E0A90928F0AE1
:103DA000A092900AB092910A07C00E94C6A9F7019A
:103DB000648B758B868B978B1F5FF4E0EF0EF11C85
:103DC000143009F098CF0E9480B40C94FB270E9415
:103DD00084314091820A5091830A6091840A7091E3
:103DE000850A8AE893E00E9472334091860A5091D6
:103DF000870A6091880A7091890A81EB98E20E9493
:103E0000723340918A0A50918B0A60918C0A7091AA
:103E10008D0A8AEA98E20E94723340918E0A50918C
:103E20008F0A6091900A7091910A87E893E00E944E
:103E300072338AE00E9457310C94FB270E94A4B48D
:103E40000E9472550C94FB278091DF0B9091E00B40
:103E5000009769F0DC012C91222349F02091450B59
:103E600021110C94FB270E94B09E0C94FB270E940A
:103E7000569F0C94FB270091DF0B1091E00B94E010
:103E8000F12C40E0915021F1F8018081282F2B7F07
:103E9000213421F421812133D9F407C08035C1F4C4
:103EA000818180538A3048F013C0813421F08534F9
:103EB00021F441E002C0FF24F39498012E5F3F4FAC
:103EC00089012F5F3F4FF80180818032C9F3DACF3B
:103ED00041110E948431FF2021F088E794E00E9484
:103EE0005E31C8010E9489330C94FB270E94CDC12A
:103EF0000C94FB2781E08093290D8093280D0E946C
:103F00001CC20C94FB271092290D1092280D0E94C0
:103F10001CC20C94FB2760E070E083E50E941D87C3
:103F20008C0111270230110544F00E9480318CE78A
:103F300094E00E945E310C94FB2788E40E942FAA33
:103F40008823A9F00E9419878A3A91053CF08D32A6
:103F5000F1E09F072CF08CE291E002C08AEA90E049
:103F6000F801EE0FFF1FE15EF24F9183808386E43C
:103F70000E942FAA882381F00E94198797FD07C00D
:103F80008F3F910529F024F08FEF90E001C080E091
:103F9000F801E75EF24F808382E40E942FAA882313
:103FA00011F40C94FB270E9419878530910534F099
:103FB0008D3891052CF08CE890E002C085E090E00F
:103FC000F801EE0FFF1FE55EF24F918380830C94A2
:103FD000FB270E941485182F87FF02C00C94FB2733
:103FE00084E40E94FDA9882309F43FC00E94C6A969
:103FF0006B017C0101E020E030E0A9010E94ABE709
:10400000811101C000E00093820C20E030E0A901A2
:10401000C701B6010E94ABE7882339F10E94C6A907
:1040200024E01202F0011124E957F34F60837183F9
:104030008283938320E030E0A9016091870C709126
:10404000880C8091890C90918A0C0E94ABE78111B9
:104050000CC080E090E0A0EEBFE38093870C9093CB
:10406000880CA093890CB0938A0C0E9428B0C3C717
:104070000E94148587FDBFC7A0E9EA2EA1E0FA2EB1
:104080000EE61AE0BEE7CB2EBAE0DB2ED7018D910B
:104090007D010E94FDA9882359F00E94C6A90E94B3
:1040A0009EEFF80160837183828393830E9409B439
:1040B0000C5F1F4FC016D10649F79DC70E9414859B
:1040C00087FD99C7F0E9EF2EF1E0FF2E0EE61AE02A
:1040D000D7018D917D010E94FDA9882339F00E94AE
:1040E000C6A9F80164A375A386A397A30C5F1F4F0D
:1040F000FAE00E371F0761F77EC787E492E00E945F
:10410000A783811128C04091A20A5091A30A60910F
:10411000A40A7091A50A81EA94E00E94723340914A
:10412000A60A5091A70A6091A80A7091A90A8EE97F
:1041300094E00E9472334091AA0A5091AB0A6091B8
:10414000AC0A7091AD0A83E99BE10E9472338AE068
:104150000E94573150C783E50E942FAA882391F00F
:104160000E94C6A96093A20A7093A30A8093A40A2E
:104170009093A50A6093AA0A7093AB0A8093AC0A45
:104180009093AD0A80E50E942FAA882351F00E94E7
:10419000C6A96093A20A7093A30A8093A40A90937D
:1041A000A50A82E50E942FAA882351F00E94C6A981
:1041B0006093A60A7093A70A8093A80A9093A90A0D
:1041C00084E50E942FAA882309F415C70E94C6A976
:1041D0006093AA0A7093AB0A8093AC0A9093AD0ADD
:1041E0000AC78CE492E00E94A783882309F403C7DE
:1041F00082E40E94FDA9882351F00E949783609376
:104200007E0A70937F0A8093800A9093810A83E5E7
:104210000E94FDA9882351F00E94C6A96093AE0AAE
:104220007093AF0A8093B00A9093B10A84E50E941C
:10423000FDA9882351F00E94C6A96093B20A709329
:10424000B30A8093B40A9093B50A8AE40E94FDA948
:10425000882309F4D0C60E94C6A96B017C012AE01C
:1042600037ED43E25CE30E9425F087FD3DC02AE97B
:1042700039E949E95EE3C701B6010E94ABE71816C8
:104280009CF1C092BE03D092BF03E092C003F092B3
:10429000C10360917A0A70917B0A80917C0A9091A7
:1042A0007D0A0E94B0E74B015C0123EF34E045E357
:1042B0005FE3C701B6010E9411E89B01AC01C50193
:1042C000B4010E9411E829E732E84AE550E40E946F
:1042D00011E80E9463F06093D6037093D703809334
:1042E000D8039093D90387C60E94803181EB94E074
:1042F0000E945E3180C61F5FF4E0EF0EF11C1330A8
:1043000011F40C948117D6018D916D010E94FDA9C5
:10431000882389F30E94C6A9F70160837183828391
:104320009383812F0E94C34EE6CF40902D0B509077
:104330002E0B60902F0B7090300B20911D0130914F
:104340001E0140911F0150912001C301B2010E9442
:10435000A2EE6EA37FA388A799A78090310B9090BF
:10436000320BA090330BB090340B2091210130918F
:1043700022014091230150912401C501B4010E9402
:10438000A2EE6AA77BA78CA79DA7C090350BD09003
:10439000360BE090370BF090380B209125013091CF
:1043A00026014091270150912801C701B6010E94C2
:1043B000A2EE6EA77FA788AB99AB2091290130911F
:1043C0002A0140912B0150912C01C301B2010E949E
:1043D000A2EE2B013C0120912D0130912E01409144
:1043E0002F0150913001C501B4010E94A2EE4B0192
:1043F0005C012091310130913201409133015091A3
:104400003401C701B6010E94A2EE6B017C010E943B
:10441000843184EE94E00E945E3183E50E94FDA920
:10442000882321F00E9449858093350180913501D0
:10443000811103C080ED94E002C086E992E00E9401
:104440005E318CED94E00E945E314EA15FA168A5C3
:1044500079A58EE893E00E9472334AA55BA56CA50E
:104460007DA581EB98E20E9472334EA55FA568A9F5
:1044700079A98AEA98E20E9472338AED97E10E9454
:104480005E3184ED94E00E945E31B301A2018EE8BA
:1044900093E00E947233B501A40181EB98E20E947F
:1044A0007233B701A6018AEA98E20E9472338AE069
:1044B0000E945731A0C583E50E942FAA882309F4E2
:1044C0009AC50E941987909337018093360193C54E
:1044D0000E941485F82E87FD8EC583E50E942FAAC1
:1044E0000F2D0F2C000C110B882369F10E941987E6
:1044F000F801EE0FFF1FE15BFE4F91838083000FF9
:10450000111F000F111F9801285C3E4F7901BC015B
:10451000990F880B990B0E94B2E72AE037ED43E22E
:104520005CE30E9411E8F801ED57F34F20813181DF
:10453000428153810E9411E8D7016D937D938D9341
:104540009C93139758C50E94843185E40E9457318B
:1045500080E38F0D0E945731F801EE0FFF1FE15BE2
:10456000FE4F6081718184EF94E00E94653285E2A4
:104570000E9457318AE00E9457313DC580E50E9474
:10458000FDA9882309F437C560E070E080E50E944A
:104590001D87F82E6FEF7FEF83E50E941D878C014A
:1045A0000196039708F027C5F7FC25C58F2D0E94BB
:1045B000A6DD882339F00E9480318CEF94E00E94C0
:1045C0005E3119C50E94A4B460E08F2D0E948CD585
:1045D0000F3FBFEF1B0731F00130110571F401E00F
:1045E00010E00DC08F2D0E9434D531E020E0892BE2
:1045F00009F030E0032F122F02C000E010E08F2DF1
:104600000E9434D58017910709F4F5C480E00E9418
:10461000AA33F5CF80E50E94FDA9882309F4EBC4F5
:104620000E9419878C01892B09F07FC083E50E94C5
:10463000FDA9882389F00E9419878F3FEFEF9E071D
:1046400029F485E59EE00E94482FD5C4BC0185E58C
:104650009EE00E94A32FCFC40E94843160E070E0EE
:104660008AE195E00E9465328091570E28E532E09C
:104670006901C81AD10887FDD394CC0CDD1CCC0C81
:10468000DD1C0D2C000CEE08FF088091560E28E86A
:1046900030E04901881A910887FD9394880C991C91
:1046A000880C991C092C000CAA08BB088091550E97
:1046B0008F3FC1F090E0FC01EE0FFF1F8E0F9F1F98
:1046C000FC01E05DF14F2181328183E0220F331F35
:1046D0008A95E1F794E0369527959A95E1F72E5F54
:1046E0003F4F02C020E030E02F5F3F4FC901330F42
:1046F000AA0BBB0B9C01AD01281939094A095B09BA
:10470000A4EBB0E00E9442EEA701960128193909F6
:104710004A095B090E9423EEB9018DED98E20E94DF
:1047200065328AE00E94573166C40E948031B80128
:104730008BE195E00E9465328BE095E00E945E314E
:104740005AC48AE50E942FAA811105C083E50E9400
:104750002FAA8823D1F10E94C6A920E030E040E0D2
:1047600050EC0E94ABE787FDBEC60E94C6A920E0C0
:1047700030E040E050E40E9425F018160CF4ADC67D
:104780000E94C6A96B017C0180912C0B86958695B1
:1047900080FF11C020918A0A30918B0A40918C0AC7
:1047A00050918D0AC701B6010E9411E80E9497EF4F
:1047B000CB010E94042F80E50E94FDA9882309F403
:1047C00098C60E944985811194C681E592E00E94B5
:1047D000A783882309F4B3C682E50E94FDA981114D
:1047E000AEC609C460E085E40E943D85811173C0B6
:1047F00080E50E94FDA9882351F00E94C6A960931C
:10480000FB037093FC038093FD039093FE0389E404
:104810000E94FDA9882381F00E94C6A92CEA35ECEC
:1048200047E25EE30E9411E86093FF037093000487
:10483000809301049093020484E40E94FDA98823DC
:1048400081F00E94C6A92CEA35EC47E25EE30E94A3
:1048500025EF609303047093040480930504909300
:1048600006040E9484314091FB035091FC03609147
:10487000FD037091FE038BE595E00E9472332CEAF4
:1048800035EC47E25EE36091FF0370910004809194
:104890000104909102040E9425EFAB01BC0187E561
:1048A00095E00E9472332CEA35EC47E25EE36091BA
:1048B00003047091040480910504909106040E9401
:1048C00011E8AB01BC0183E595E00E9472338AE0F8
:1048D0000E94573190C30E94803181E495E00E948C
:1048E0005E3189C380E50E94FDA9882351F00E94B2
:1048F000C6A96093EC0A7093ED0A8093EE0A909338
:10490000EF0A89E40E94FDA9882381F00E94C6A9CC
:104910002CEA35EC47E25EE30E9411E86093F00A6E
:104920007093F10A8093F20A9093F30A84E40E9450
:10493000FDA9882381F00E94C6A92CEA35EC47E244
:104940005EE30E9425EF6093F40A7093F50A80936A
:10495000F60A9093F70A0E9484314091EC0A509134
:10496000ED0A6091EE0A7091EF0A8BE595E00E94E6
:1049700072332CEA35EC47E25EE36091F00A709105
:10498000F10A8091F20A9091F30A0E9425EFAB019F
:10499000BC0187E595E00E9472332CEA35EC47E2D2
:1049A0005EE36091F40A7091F50A8091F60A9091A5
:1049B000F70A0E9411E8AB01BC0183E595E00E9473
:1049C00072338AE00E94573116C383E50E94FDA925
:1049D000182F882371F00E94C6A90E9497EF709348
:1049E0003D0160933C0121E0672B09F020E020931A
:1049F000EF0380E50E94FDA9882359F020913C0136
:104A000030913D01232B11F00E9449858093EF03E3
:104A1000F2C21111F0C20E94843188E795E00E9431
:104A20005E318091EF03811103C08FE595E002C0F4
:104A30008BE19DE10E945E3160913C0170913D01EE
:104A400087E695E00E94653283E695E00E945E313C
:104A5000D2C281E00E9465B20E947255CCC280E051
:104A60000E9465B20E941DB20E947255C4C26FEFCF
:104A70007FEF89E40E941D87182F6FEF7FEF8AE494
:104A80000E941D87082F8AE50E94FDA9F82E81113A
:104A900005C081E50E94FDA9D82E01C0D12C17FDCB
:104AA00006C007FD04C0F11009C0D11007C00E9464
:104AB00080318BE895E00E945E319DC2153010F484
:104AC000053038F00E94803185EF92E00E945E311F
:104AD00092C2E12E110FFF08002E000C110B0E9454
:104AE000C6A9DD2099F025E02E9DF0012F9DF00D47
:104AF0001124E00FF11FEE0FFF1FEE0FFF1FE55611
:104B0000F34F208131814281538103C020E030E0A6
:104B1000A901A5E0AE9DF001AF9DF00D11240E0F8F
:104B20001F1F000F111F000F111F0556134F0E946A
:104B3000A2EED8016D937D938D939C9313975BC2E6
:104B40000E944472811157C202EF10E1EAE4FBE0D7
:104B5000FFA3EEA39E012F5F3F4F190135E2C32E45
:104B600031E1D32E7101F801659175918591949190
:104B7000AEA1BFA18D909D90AD90BD90BFA3AEA3FF
:104B8000A50194010E94A1EE2B013C0120E030E040
:104B900040EA51EC0E9425F087FD10C020E030E093
:104BA00040EA51E4C301B2010E94ABE7181634F0A9
:104BB000F70140825182628273820EC0F6018491B5
:104BC0001816B4F7B7FAB094B7F8B094D7018D922D
:104BD0009D92AD92BC921397D7018D909D90AD9010
:104BE000BD907D0120E030E040EA51ECC501B40108
:104BF0000E9425F087FDDEC420E030E040EA51E469
:104C0000C501B4010E94ABE718160CF0AAC4D2C4C7
:104C10000E94CEC8F0C181E08093100D0E9499C31C
:104C20001092100D882309F4E6C10E94843187EEAA
:104C300095E00E945E31DFC181E592E00E94A7838A
:104C4000811128C04091390B50913A0B60913B0B78
:104C500070913C0B8FE296E00E94723340913D0BC5
:104C600050913E0B60913F0B7091400B81EB98E2AD
:104C70000E9472334091410B5091420B6091430B63
:104C80007091440B8AEA98E20E9472338AE00E9493
:104C90005731B1C12090390B30903A0B40903B0B0B
:104CA00050903C0B60903D0B70903E0B80903F0B02
:104CB000F091400BFEA3C090410BD090420BE090CE
:104CC000430BF090440B88E50E942FAA882351F1F2
:104CD0000E94C6A95B018C0120E030E04BE653EC5A
:104CE0000E9425F087FD0AC020E030E04BE653E447
:104CF000B501C8010E94ABE7181694F46BEE70E0A2
:104D00008CE196E00E9465326BEE70E087E196E000
:104D10000E9465328BE994E00E945E3110E003C08E
:104D20001501280111E089E50E942FAA882381F14D
:104D30000E94C6A9962EA72EB82E092F20E030E09B
:104D40004BE653EC0E9425F087FD0CC020E030E0DC
:104D50004BE653E4692D7A2D8B2D902F0E94ABE703
:104D6000181694F46BEE70E084E096E00E946532D1
:104D70006BEE70E087E196E00E9465328BE994E08B
:104D80000E945E3110E004C0692C7A2C8B2C0EA39B
:104D90008AE50E942FAA882339F10E94C6A96B01D7
:104DA0007C0120E030E040EA51EC0E9425F087FDD4
:104DB0000AC020E030E040EA51E4C701B6010E9499
:104DC000ABE718168CF46CEE7FEF82EF95E00E9453
:104DD000653264E170E087E196E00E9465328BE91C
:104DE00094E00E945E3107C1112309F404C1C1019E
:104DF000D2018093390B90933A0BA0933B0BB09365
:104E00003C0BC301A82DBEA180933D0B90933E0B9C
:104E1000A0933F0BB093400BC092410BD092420B3A
:104E2000E092430BF092440BE6C00E942C87E3C053
:104E30000E941485082F87FDDEC085E50E94FDA92C
:104E40008823B1F1E02E002E000CFF080E94C6A9B5
:104E50004B015C0120E030E0A9010E9425F087FFB2
:104E600004C0B7FAB094B7F8B094C70123E0880F34
:104E7000991F2A95E1F79C012F5E324F7901D901E4
:104E80008D929D92AD92BC92139720E030E84BE357
:104E900054E4C501B4010E9425F018164CF480E0DA
:104EA00090E8ABE3B4E4F70180839183A283B383FA
:104EB0008CE40E94FDA9882309F49DC0002E000CFB
:104EC000110B0E94C6A96B017C0120E030E0A90112
:104ED0000E9425F087FF04C0F7FAF094F7F8F094E9
:104EE00020E030E84BE354E4C701B6010E9425F00E
:104EF000980193E0220F331F9A95E1F7F901EF5ED5
:104F0000F24F18162CF0C482D582E682F78273C065
:104F100080E090E8ABE3B4E484839583A683B78311
:104F20006AC08BE40E942FAA882329F10E94C6A997
:104F30006B017C0120E030E0A9010E9425F087FD93
:104F400015C020E030E040E251E4C701B6010E9404
:104F5000ABE718165CF00E94A4B4C0920704D0928C
:104F60000804E0920904F0920A0445C08EE396E03A
:104F70000E945E3140C00E948431409107045091EC
:104F800008046091090470910A048DE596E00E947E
:104F900072338AE00E9457312EC081E080937601FF
:104FA0001092450B60E083E50E940487811123C0C5
:104FB0000E9483A720C00E942A721DC00091E30BAB
:104FC0001091E40B0023B9F00E94843184E50E9423
:104FD0005731B8017727072E000C880B990B0E94D8
:104FE000493280E20E94573181E495E00E945E31AF
:104FF00002C00E942A72FCA9F11109C0E091FB0DC8
:10500000F0E0EF52F14F808181110E943AA72AA966
:1050100020936702DDC20E94A4B430918B0C3BAB9D
:1050200080E00E94ADAF0E94725281E08093290D12
:105030000E941CC288E50E94FDA9182F89E50E94E4
:10504000FDA9282E8AE50E94FDA91211E8C11817B2
:1050500011F0212EE4C12224239411E001E080E12B
:10506000EAE4FBE0AFE8B3E001900D928A95E1F746
:1050700082E50E942FAA882369F00E94C6A96B01CD
:105080007C0120E030E0A9010E94ABE7882309F40D
:105090003FC006C0C12CD12CB0E8EB2EB0E4FB2EF3
:1050A000111103C0222009F411C180912C0B82FD43
:1050B00009C06091520B7091530B8091540B9091E9
:1050C000550B03C060E070E0CB01A70196010E9480
:1050D000A2EE609397037093980380939903909343
:1050E0009A032091520B3091530B4091540B5091E5
:1050F000550B0E9425F018165CF419821A821B8247
:105100001C82BE016F5F7F4F87E993E00E948F533F
:10511000112309F4D6C0222009F4D0C010924A0B02
:1051200010924B0B10924C0B10924D0B10924E0B99
:1051300010924F0B1092500B1092510B0E9437544B
:10514000E5E2F1E184918DABEEEFF0E18590959091
:10515000A590B490E2E0F1E1C590D590E590F4908F
:10516000A7019601C501B4010E9425F018162CF480
:10517000A5019401C701B60104C0A7019601C501AC
:10518000B4010E9425EF2B013C01EEE0F1E1859195
:105190009591A591B4918EA39FA3A8A7B9A7EAE082
:1051A000F1E185919591A591B4918AA79BA7ACA7B0
:1051B000BDA79C01AD016EA17FA188A599A50E9404
:1051C00025F018163CF01EA19FA19EA738A4A9A502
:1051D000AEA306C01AA5BBA5BEA73CA4EDA5EEA331
:1051E000A3019201C301B2010E9411E820E030E066
:1051F00040E85FE30E94A2EE0E9463F0212F3EA5EB
:10520000432D5EA10E9411E86A8F7B8F8C8F9D8F4A
:10521000E6E2F1E1149120E030E040EC5FE3C70109
:10522000B6010E9411E86B017C01612F110F770B11
:10523000880B990B0E94B2E79B01AC01C701B60134
:105240000E9411E869837A838B839C8320E030E09D
:1052500040EC5FE3C501B4010E9411E86B017C01E1
:10526000FDA96F2FFF0F770B880B990B0E94B2E7F8
:105270009B01AC01C701B6010E9411E86E8B7F8BC8
:10528000888F998FAE01465E5F4FBE016F5F7F4F83
:10529000CE0146960E946D530E942BC210924A0B7B
:1052A00010924B0B10924C0B10924D0B10924E0B18
:1052B00010924F0B1092500B1092510B80E00E94F5
:1052C0003954222019F081E00E943954002309F456
:1052D00095C080E00E9431AF80912C0B83708330A9
:1052E00051F060E087EE92E00E94DF9E0E948431E0
:1052F00088ED92E07FC00E9437544090520B50904E
:10530000530B6090540B7090550B2091390B3091DA
:105310003A0B40913B0B50913C0B60E070E088E40D
:1053200092E40E94A1EE6B017C0160938F03709365
:105330009003809391039093920320913D0B3091C1
:105340003E0B40913F0B5091400B60E070E088E4D1
:1053500092E40E94A1EE4B015C0160939303709371
:10536000940380939503909396032091410B309181
:10537000420B4091430B5091440BC301B2010E9478
:10538000A1EE609397037093980380939903909391
:105390009A0327E137EB41ED58EBC501B4010E94B8
:1053A00025F087FD1EC027E030E04BE653E4C50141
:1053B000B4010E94ABE71816A4F027E137EB41EDEA
:1053C00058EBC701B6010E9425F087FD0AC027E00F
:1053D00030E04BE653E4C701B6010E94ABE7181674
:1053E00004F560E087EC92E00E94DF9E0E94843129
:1053F00085EB92E00E945E310E941DB20E943754FC
:105400008091280D8093290D8BA90E94ADAF0E9439
:10541000595283E0809344010E947255ECCD082FCD
:105420001ECE1E8A1F8A188E198E88E0EFE8F3E0E0
:10543000DE01119601900D928A95E1F7AE014A5E68
:105440005F4FBE016B5F7F4FCE0101960E946D538F
:1054500082E00E943954D0CF0E949588CCCD1111A2
:105460000C94711A0C946A1A80E00E94AA330C946E
:105470009F1A61E0802F0E948CD56F2D802F0E9493
:105480005DD56F2D70E0802F0E94C8D584E0E812B2
:10549000B2CDF092DE03AFCD0E94879A0C94111C1E
:1054A0008AE998E19F938F9383E693E09F938F938C
:1054B0001F920E94789F0F900F900F900F900F9067
:1054C0000C94311CA3019201C501B4010E9425F086
:1054D000181634F38BE898E1E5CFC12CD12CE12CE0
:1054E00010E4F12E51C9C12CD12CE12CB0ECFB2ED3
:1054F0004BC9A70196016091410B7091420B8091BD
:10550000430B9091440B0E94A2EE6093410B709369
:10551000420B8093430B9093440B0E948431409143
:10552000410B5091420B6091430B7091440B81E30E
:1055300095E00E9472338AE00E94573146C90E946A
:1055400084314091410B5091420B6091430B70911B
:10555000440B82E295E00E9472338AE00E94573148
:105560004ACD0C5F1F4FBFEFCB1ADB0AE0E10E3FC5
:105570001E0709F0F8CA8DE2E82E8DE0F82E10E043
:10558000F10181919191A191B1911F01F701819355
:105590009193A193B1937F01812F0E94C34E1F5F0E
:1055A000133071F70E94725560E08BEA95E00E941B
:1055B000DF9E21CD0E94803189EC95E00E945E3112
:1055C00061E08BEB95E00E94DF9E0E94818013CD0D
:1055D000E5960FB6F894DEBF0FBECDBFDF91CF9139
:1055E0001F910F91FF90EF90DF90CF90BF90AF9001
:1055F0009F908F907F906F905F904F903F902F90F3
:1056000008954F925F926F927F928F929F92AF9286
:10561000BF92CF92DF92EF92FF920F931F93CF939F
:10562000DF93EC012091FF0C3091000D4091010DB2
:105630005091020D688179818A819B810E94A1EE3F
:105640006B017C012091030D3091040D4091050DFB
:105650005091060D6C817D818E819F810E94A1EE0B
:105660004B015C01A701960160910701709108014F
:105670008091090190910A010E94ABE7882309F407
:1056800067C0C0920701D0920801E0920901F09230
:105690000A0120911B0330911C0340911D0350917E
:1056A0001E03C701B6010E9411E82B013C010E94B4
:1056B000CDEF6B017C0120E030E0A9010E94ABE757
:1056C00087FD11C020E030E040E850E4C701B6019A
:1056D0000E9425F0181654F4C12CD12CC0E8EC2EF1
:1056E000C0E4FC2E03C0C12CD12C7601A701960189
:1056F000C301B2010E94A1EE2B013C0120E030E089
:10570000A9010E94ABE787FD09C0409213035092A4
:105710001403609215037092160308C010921303CD
:10572000109214031092150310921603C701B601CC
:105730000E9497EF60931103062E000C770B6F5FAA
:105740007F4F6430710514F064E070E060930F03E4
:10575000A501940160910B0170910C0180910D01E4
:1057600090910E010E94ABE7D091050110911103B9
:10577000811103C0D11368C0B9C080920B0190920F
:105780000C01A0920D01B0920E0120911F033091E7
:1057900020034091210350912203C501B4010E94CE
:1057A00011E84B015C010E94CDEF6B017C0120E010
:1057B00030E0A9010E94ABE787FD11C020E030E096
:1057C00040E850E4C701B6010E9425F0181654F4D1
:1057D000C12CD12CB0E8EB2EB0E4FB2E03C0C12CC1
:1057E000D12C7601A7019601C501B4010E94A1EE5A
:1057F0004B015C0120E030E0A9010E94ABE787FD8E
:1058000009C08092170390921803A0921903B092D6
:105810001A0308C01092170310921803109219036C
:1058200010921A03C701B6010E9497EF609312030A
:10583000062E000C770B6F5F7F4F6430710514F0FC
:1058400064E070E060931003C0911203D1137BC039
:10585000809106018C1377C08090170390901803F5
:10586000A0901903B0901A03209107033091080308
:105870004091090350910A03C501B4010E9411E847
:1058800020910B0330910C0340910D0350910E03B6
:105890000E94A2EE6B017C016093FB027093FC02FC
:1058A0008093FD029093FE022091FF02309100034D
:1058B0004091010350910203C501B4010E9411E817
:1058C0002091030330910403409105035091060396
:1058D0000E94A2EEA70196010E94A1EE6093F7023A
:1058E0007093F8028093F9029093FA022091F702E4
:1058F0003091F8024091F9025091FA02609113033D
:105900007091140380911503909116030E9411E881
:105910002091FB023091FC024091FD025091FE0269
:105920000E94A2EEDF91CF911F910F91FF90EF9017
:10593000DF90CF90BF90AF909F908F907F906F90AF
:105940005F904F900895809111039091120390936E
:105950000601809305010C2E000CDD0B85E0F82E6E
:105960002F2D1203C0011124FC01EC0FFD1FEE0FBF
:10597000FF1FEE0FFF1FE556F34F2081318142815B
:10598000538120930B0330930C0340930D035093EA
:105990000E0300911003002E000C110BFC01E00F10
:1059A000F11FEE0FFF1FEE0FFF1FE556F34F608153
:1059B0007181828193810E94A1EE609307037093AD
:1059C00008038093090390930A0320910F033F2D4E
:1059D0002303F0011124CE0FDF1FCC0FDD1FCC0FEE
:1059E000DD1FC556D34F288139814A815B812093C1
:1059F0000303309304034093050350930603E00F21
:105A0000F11FEE0FFF1FEE0FFF1FE556F34F6081F2
:105A10007181828193810E94A1EE6093FF02709355
:105A20000003809301039093020316CF8F929F92FD
:105A3000AF92BF92CF92DF92EF92FF92C090070D8C
:105A4000D090080DE090090DF0900A0D20E030E0B4
:105A5000A901C701B6010E94ABE7882359F0A7014D
:105A6000960160E070E080E89FE30E9425EF6B0103
:105A70007C0103C0C12CD12C760180900B0D90903D
:105A80000C0DA0900D0DB0900E0D20E030E0A9019E
:105A9000C501B4010E94ABE7882349F0A501940138
:105AA00060E070E080E89FE30E9425EF03C060E0C3
:105AB00070E0CB01C0921B03D0921C03E0921D0347
:105AC000F0921E0360931F037093200380932103C1
:105AD00090932203FF90EF90DF90CF90BF90AF9014
